:020000040800F2
:1000000000A00020ED1A0008351B0008351B000871
:10001000351B0008351B0008351B000800000000D8
:10002000000000000000000000000000351B000878
:10003000351B000800000000351B0008351B0008B8
:1000400000000000000000000000000000000000B0
:1000500000000000000000000000000000000000A0
:100060000000000000000000000000000000000090
:100070000000000000000000000000000000000080
:100080000000000000000000000000000000000070
:100090000000000000000000000000000000000060
:1000A0000000000000000000000000000000000050
:1000B0000000000000000000000000000000000040
:1000C0000000000000000000000000000000000030
:1000D0000000000000000000000000000000000020
:1000E0000000000000000000000000000000000010
:1000F0000000000000000000000000000000000000
:1001000000000000000000000000000000000000EF
:1001100000000000000000000000000000000000DF
:1001200000000000000000000000000000000000CF
:1001300000000000000000000000000000000000BF
:1001400000000000000000000000000000000000AF
:10015000000000000000000000000000000000009F
:10016000000000000000000000000000000000008F
:10017000000000000000000000000000000000007F
:08018000000000000000000077
:1001880010B5054C237833B9044B13B10448AFF3C9
:1001980000800123237010BD0C0200200000000025
:1001A800801B000808B5034B1BB103490348AFF394
:1001B800008008BD0000000010020020801B00081D
:1001C80013B5074B01930C4639B901AA04217220D3
:1001D80001F062FB204602B010BD0124FAE700BF1F
:1001E8004145530370B5152986B0054621D1134BF7
:1001F8001B7803B36C1D00F043FC05AA2946204672
:1002080000F04EFB064600F042FC7EB92346153549
:1002180001AC18685968224603C20833AB42144639
:10022800F7D101AA1221722001F036FB304606B040
:1002380070BD0126FAE70226F8E700BF2802002071
:10024800102938B505460C4610D10A4B1B787BB1EE
:1002580000F016FC284600F067FB00F018FC72203E
:100268002A46214601F018FB002038BD0120FCE792
:100278000220FAE728020020102938B505460C4666
:1002880010D10A4B1B787BB100F0FAFB284600F02E
:1002980003FB00F0FCFB72202A46214601F0FCFA21
:1002A800002038BD0120FCE70220FAE728020020E0
:1002B800102938B504460D4618D10E4B1B78BBB132
:1002C80000F0D8FA204601F00AFC00F0D9FB2046DD
:1002D80001F003FC00F0DBFB204601F001FC72207A
:1002E8002246294601F0D8FA002038BD0120FCE753
:1002F8000220FAE728020020102910B5044609D187
:1003080001F0E9FB204600F0BDFA034B01221A7008
:10031800002010BD0120FCE72802002010B50129AB
:1003280086B00DD1007801A900F0DCFA044620B9A6
:1003380001AA1321722001F0AFFA204606B010BDC1
:100348000124FAE708B500F0F9FA00F037FB00F0ED
:1003580073FB00F09CFB01F0BDFB01F029FA134A86
:100368000021692001F020FA114A10216B2001F0C8
:100378001BFA104A1021702001F016FA0E4A1021BB
:10038800742001F011FA0D4A0121732001F00CFAD2
:100398000B4A1021642001F007FA0A4A1521662049
:1003A80001F002FA01F01AFAFCE700BFC9010008DF
:1003B80001030008B90200088102000825030008AB
:1003C80049020008ED01000837B5274A52F8043BF6
:1003D80003F1100118781070587850709878907060
:1003E800D878D07004338B4202F10402F2D11F4B4B
:1003F8001F4804211A6801928C0716D1C2F30745D9
:10040800C2F30724455D8DF80550150ED2B2045D80
:10041800825C8DF8072000EB9102455D92F800217F
:100428008DF8065062408DF8042013F80C2C9DF8C6
:10043800044062401A719DF8054013F80B2C624085
:100448005A719DF8064013F80A2C62409A719DF87B
:10045800074013F8092C013162402C29DA7103F1A5
:100468000403C7D103B030BD2C0200203C02002099
:10047800981B00080B4AD2F8B430F0B5000103F11C
:100488001006043214181D1D197814F8017B7940E0
:1004980003F8011BAB42F7D19E4200F10400F1D1F1
:1004A800F0BD00BF2C020020094B0A48D3F8B43035
:1004B80010B5191D002213F82240045D03F82240EC
:1004C8000132042AF7D101338B42F3D110BD00BFAA
:1004D8002C020020981B00080D4BD3F8B430597932
:1004E8005A785970597A5971597B5972997A5A734D
:1004F8009A789970997B9A729A799971D97B9A733B
:10050800DA78D970D97AD973D979D972DA7170470A
:100518002C020020C30903EB430303EBC30383EA64
:100528004000C0B2704700002DE9F843174BD3F8DC
:10053800B42002F1100792F8008054789178D678A8
:1005480084EA080081EA060980EA0905FFF7E2FF64
:1005580088EA00006840107084EA0100FFF7DAFFBB
:1005680044406C4054704846FFF7D4FF414069400E
:10057800917086EA0800FFF7CDFF46407540D570B8
:1005880004329742D7D1BDE8F88300BF2C0200207F
:100598000A4BD3F8B43010B5094C181D002213F8D3
:1005A8002210214491F80B1103F822100132042A79
:1005B800F5D101338342F1D110BD00BF2C020020D8
:1005C800981B00080D4BD3F8B430597A5A7B5973ED
:1005D8005979597259785971997A5A709A789970E3
:1005E800997B9A729A799971D9799A73DA78D970CC
:1005F800D97AD971D97BD972DA7370472C02002065
:100608002DE9F04F0A2089B0FFF734FF0926FFF7DC
:10061800D9FFFFF7BDFF3046FFF72CFF4D4BD3F84E
:10062800B41001F11003069391F8009091F801803D
:100638008F7891F803A04846FFF76CFF0090FFF70A
:1006480069FF0190FFF766FF83464046FFF762FFA8
:100658000246FFF75FFF0290FFF75CFF054638464A
:10066800FFF758FF0390FFF755FF0790FFF752FF7A
:1006780004465046FFF74EFF0490FFF74BFF0590E6
:10068800FFF748FFDDE9003C83EA0C0C8BEA0C0C11
:10069800029BDDF81CE082EA0C0C8BEA02025A404D
:1006A800039B6A405A40059B62405A40424089EA8F
:1006B8000202019B7A408AEA02024A7083EA0B022C
:1006C800039B6A405A4082EA0E02049B62405A40E9
:1006D800424089EA020288EA02028AEA02038B702F
:1006E800009B029A85EA0C0C8EEA0C0C83EA0B0339
:1006F800534084EA0C0C80EA0C0C5D40049B059A7C
:1007080088EA0C0C6C4087EA0C0C63408AEA0C0CF3
:1007180082EA030A80EA0A0089EA000988EA0908E5
:1007280087EA080781F800C0CF70069B04318B4226
:100738007FF47AAF013E16F0FF067FF468AFFFF74B
:1007480041FFFFF725FF304609B0BDE8F04FFFF73E
:1007580091BE00BF2C02002070B50E4C94F8B85022
:1007680005EBC50205EB420204F1B906B318B5540E
:10077800D4F8B4209970587002F11001033352F87C
:10078800040B43F8040B8A42F9D1013584F8B850B8
:1007980070BD00BF2C02002070B504460D4692B112
:1007A800117881420FD15178A9420CD1124996781B
:1007B800D1F8B400D17800EB8100815D197012790D
:1007C8004A4082555A706B1E032B05D8DFE803F0A8
:1007D800020A0D10FFF768FE29462046BDE8704062
:1007E800FFF7BABFFFF778FEF6E7FFF79DFEF3E7DE
:1007F8002046FFF73FFEEFE72C0200201C4B2DE9B7
:10080800F0410024C3F8B4000D462046214683F881
:10081800B8401646FFF7A0FF2046FFF72BFE2046FC
:100828000421FFF799FF0124012739460137334690
:100838002A462046FFB2FFF7AFFF052FF5D1013456
:10084800E4B20A2CF0D133462A4620460121FFF7AC
:10085800A3FF33462A4620460221FFF79DFF334671
:100868002A4620460421BDE8F041FFF795BF00BFA6
:100878002C020020024B002283F8B820704700BFEA
:100888002C020020034B002283F8B8201860FFF7E1
:100898009BBD00BF2C02002000221146FFF7AEBF0F
:1008A80038B50F4B002483F8B8400C78631E092B29
:1008B80013D84B785D1E032D0FD80A2C01D1032BBA
:1008C8000BD08B78032B08D8CB78032B05D80B7962
:1008D8001BB1FFF793FF002038BD0520FCE700BFE0
:1008E8002C0200200F4B93F8B820292A15D128286C
:1008F80015D800EBC00200EB4200B933034403F102
:10090800100253F8040B41F8040B9342F9D11A88EA
:100918000A809B788B700020704703207047042062
:10092800704700BF2C020020034B002283F8B82038
:10093800C3F8B400FFF764BE2C02002070B596B06F
:10094800002403264FF4A0230CA80125CDE90C634D
:100958001094149400F0D4F80F23214602A8CDE98E
:100968000235CDE90444069400F010FB114B5A6996
:1009780042F400225A615B69CDE9094603F4002379
:100988000D4C0193019B07A94FF4C0432046CDE9C4
:10099800073500F09BFB2A4620464FF4005100F033
:1009A80053FC2A464FF48041204600F04DFC16B017
:1009B80070BD00BF001002400008004810B54FF499
:1009C800C06288B00223CDE9032301210323CDE9C6
:1009D8000513164C07230793636943F400336361D7
:1009E800636903F40033019303A94FF09040019B1E
:1009F80000F06CFB0E48DFF83CC04FF41643C0E92A
:100A080000C30023C0E90233036183610C234361FF
:100A1800A36943F48043A361A36903F48043029369
:100A2800029B00F027FD08B010BD00BF0010024077
:100A3800000600200038014030B5104B5A6942F4D6
:100A4800003287B05A615B6903F400330093009B5E
:100A58004FF480540123CDE901430025032301A964
:100A68004FF09040CDE9035300F030FB2A46214671
:100A78004FF0904000F0E8FB07B030BD0010024096
:100A880001224FF480514FF0904000F0DDBB00226E
:100A98004FF480514FF0904000F0D6BB37B50A4D67
:100AA8000A4C41F2883301220DF10701284600F073
:100AB80061FD18B99DF8070003B030BD236A43F003
:100AC80008032362EDE700BF00060020003801405C
:100AD80007B541F288338DF8070001220DF10701AF
:100AE800024800F0F1FC03B05DF804FB00060020AA
:100AF800024B1868421C1A60704700BF700600203D
:100B080003682DE9F743D907044610D423689A07E8
:100B18007ED423681E0700F1E78023685D0700F193
:100B28002A81E269002A40F0AD8100201FE0AE4929
:100B38004B6803F00C03042B07D04B6803F00C033D
:100B4800082B17D14B68DB0314D54FF4003393FA05
:100B5800A3F2096893FAA3F30122B3FA83F302FA22
:100B680003F30B42D2D06368002BCFD1012003B02E
:100B7800BDE8F0836268B2F5803F22D10B6843F488
:100B880080330B60CB6AA06823F00F030343CB626A
:100B98003AB3FFF7ADFF4FF400360546012796FA42
:100BA800A6F30A6896FAA6F3B3FA83F307FA03F3EF
:100BB8001342ABD1FFF79CFF401B6428EFD90320F9
:100BC800D5E70B6832B923F480330B600B6823F444
:100BD8008023D6E7B2F5A02FF5D143F480230B602C
:100BE800CCE7FFF785FF4FF400360546012796FA54
:100BF800A6F30A6896FAA6F3B3FA83F307FA03F39F
:100C0800134283D0FFF774FF401B6428EFD9D6E75F
:100C180075494B6813F00C0F07D04B6803F00C03B1
:100C2800082B1FD14B68DF031CD4022393FAA3F2CD
:100C3800086893FAA3F30122B3FA83F302FA03F3E1
:100C4800034202D02369934290D10868F82292FAAD
:100C5800A2F26369B2FA82F2934020F0F8021343D9
:100C68000B6056E722690125F2B195FAA5F3B3FAAC
:100C780083F303F1845303F584139B0002271D605B
:100C8800FFF736FF064697FAA7F30A6897FAA7F31D
:100C9800B3FA83F305FA03F31342D6D1FFF728FF1B
:100CA800801B0228EFD98AE795FAA5F3B3FA83F3F4
:100CB80003F1845303F584139B0002271A60FFF79E
:100CC80017FF064697FAA7F30A6897FAA7F3B3FA45
:100CD80083F305FA03F313423FF41BAFFFF708FF52
:100CE800801B0228EED96AE7A2693F4D3F480121DF
:100CF80002B391FAA1F3B3FA83F303449B000226EB
:100D08001960FFF7F5FE074696FAA6F396FAA6F3DA
:100D180096FAA6F36A6A96FAA6F3B3FA83F301FA87
:100D280003F313427FF4F9AEFFF7E2FEC01B02287B
:100D3800EAD944E791FAA1F3B3FA83F303449B0099
:100D480002261A60FFF7D4FE074696FAA6F396FA2B
:100D5800A6F396FAA6F36A6A96FAA6F3B3FA83F3A9
:100D680001FA03F313423FF4D8AEFFF7C1FEC01BEC
:100D78000228EAD923E71C49CB69D80031D4CB69CA
:100D880043F08053CB61CB6903F080530193019BFF
:100D98000125174E3368DA052CD5E368012B39D1C4
:100DA8000B6A43F001030B62FFF7A2FE0226074617
:100DB8004FF0010841F2883996FAA6F396FAA6F39D
:100DC8000A6A96FAA6F3B3FA83F308FA03F313420E
:100DD80052D0002D3FF4A5AECB6923F08053CB61F0
:100DE8009FE60025D5E700BF001002402081901043
:100DF80000700040336843F480733360FFF778FE77
:100E080007463368DB05C8D4FFF772FEC01B6428A9
:100E1800F7D9D4E613BB0B6A23F001030B620B6A04
:100E280023F004030B62FFF763FE022607464FF028
:100E3800010841F2883996FAA6F396FAA6F30A6AE7
:100E480096FAA6F3B3FA83F308FA03F31342C0D071
:100E5800FFF74EFEC01B4845EDD9B0E6052B0B6ADF
:100E680003D143F004030B629AE723F001030B62FA
:100E78000B6A23F0040396E7FFF73AFEC01B4845C8
:100E88009AD99CE63F494B6803F00C03082B3FF4C2
:100E98006DAE022A4FF0807350D193FAA3F3B3FAE0
:100EA80083F303F1845303F584139B0000221A6033
:100EB800FFF71EFEDFF8D08006464FF000770125C9
:100EC80097FAA7F30A6897FAA7F3B3FA83F305FA30
:100ED80003F313422CD1D4E908034A68034322F4EC
:100EE800741213434B604FF0807393FAA3F3B3FA71
:100EF80083F303F1845303F584139B00224F1D6091
:100F0800FFF7F6FD4FF000750446012695FAA5F3A4
:100F18000A6895FAA5F3B3FA83F306FA03F31342C2
:100F28007FF403AEFFF7E4FD001BB842EED946E6B6
:100F3800FFF7DEFD831B4345C2D940E693FAA3F3CE
:100F4800B3FA83F303F1845303F584139B0000225F
:100F58001A60FFF7CDFD0C4F04464FF000750126CF
:100F680095FAA5F30A6895FAA5F3B3FA83F306FA96
:100F780003F313423FF4D9ADFFF7BAFD001BB842A3
:100F8800EED91CE600100240400D03004D4AF8B5AA
:100F9800136803F007038B42044611D322689507B0
:100FA8001AD4D00720D4474A136803F007038B42AA
:100FB8006CD82268510774D413077AD400200AE049
:100FC800136823F007030B431360136803F0070348
:100FD8008B42E3D00120F8BD3B48A568436823F065
:100FE800F0032B434360DCE76268374D012A25D1C3
:100FF8004FF4003393FAA3F0286893FAA3F3B3FAF3
:1010080083F302FA03F30342E4D06B6823F003038B
:1010180013436B60FFF76CFD6368012B064641F2D2
:1010280088371CD16B6803F00C03042BBBD0FFF787
:101038005FFD801BB842F5D90320CCE7022A0CBF1C
:101048004FF00073022393FAA3F02E6893FAA3F3E8
:101058000120B3FA83F300FA03F33342D4E7022BF7
:101068000FD16B6803F00C03082B9CD0FFF740FDF1
:10107800801BB842F5D9DFE7FFF73AFD801BB8427D
:10108800DAD86B6813F00C0FF6D18CE7136823F0ED
:1010980007030B431360136803F007038B4299D1CE
:1010A80087E70949E0684B6823F4E06303434B6032
:1010B80082E7054A2169536823F4605343EAC10370
:1010C80053607BE700200240001002402DE9F74FF3
:1010D800DFF868815A4C00234FF00F090A6832FA8A
:1010E80003F502D103B0BDE8F08F012505FA03FA34
:1010F8001AEA020200F098804D6825F0100EBEF141
:10110800020F11D1DF0800EB870703F0070C3E6AD6
:101118004FEA8C0C09FA0CFB26EA0B0B0E6906FA4F
:101128000CF646EA0B063E62D0F800B04FEA430CD4
:10113800032606FA0CF72BEA070BFE4305F0030714
:1011480007FA0CF70EF1FF3E47EA0B07BEF1010F55
:10115800076010D8876806EA070ECF6807FA0CF709
:1011680047EA0E078760476827EA0A0E2F099F405B
:1011780047EA0E074760C76837408E6806FA0CF6DC
:101188003E43C660EE004FD5D8F8186046F0010619
:10119800C8F81860D8F8186023F0030707F18047EB
:1011A80006F0010607F58037019603F0030C019E4F
:1011B800BE684FEA8C0C09FA0CFEB0F1904F26EA93
:1011C8000E0E33D01F4EB04232D006F58066B042C4
:1011D80030D006F58066B0422ED006F58066B04263
:1011E80014BF0526042606FA0CF646EA0E06BE606B
:1011F8002668D74315F4803F0CBF3E40164326604F
:10120800666815F4003F0CBF3E4016436660A6684A
:1012180015F4801F0CBF3E401643A660E668AD0279
:1012280054BF3E401643E660013357E70026DAE72D
:101238000126D8E70226D6E70326D4E700100240A5
:1012480000040140000400480AB1816170478162CE
:101258007047000002688368C16930B50569146881
:101268002B43456924F416442B4324F00C040B4308
:10127800234313605368C468056A23F44053234327
:1012880053609468836924F430642B432343936048
:10129800424B9A4211D103F558431B6B03F00303E9
:1012A800022B5FD0032B65D0B1F5004F41684FEAA0
:1012B800510345D003F5E10348E0394B9A4212D176
:1012C80003F5E6331B6B03F44033B3F5003F49D015
:1012D800EAD9B3F5403F4DD0B1F5004F4FF00100CA
:1012E8005BD1002353E02F4B9A420BD103F5E43333
:1012F8001B6B03F44023B3F5002F33D0D4D9B3F5D7
:10130800402FE8E7284B9A420BD103F5E2331B6BD9
:1013180003F44013B3F5001F24D0C5D9B3F5401F1B
:10132800D9E7224B9A42D7D103F5E0331B6B03F47C
:101338004003B3F5000F15D0B6D9B3F5400FCAE78F
:1013480003F561031FE04B0803F50043B3FBF1F31A
:101358009BB2D360002020E04B0803F5740303F52B
:101368001053F3E7B1F5004F4168ECD14B0803F592
:10137800803308E0B1F5004F4168EDD14B0803F127
:10138800F47303F59043B3FBF1F300209BB223F011
:101398000F01C3F342030B43D36030BD0038014053
:1013A8000044004000480040004C0040005000400D
:1013B8002DE9F041DDF81880044616461F462568D9
:1013C800EB6931EA03030CBF01230023B34201D0C8
:1013D800002016E0B8F1FF3FF2D0B8F1000F12D1AB
:1013E8002B6823F4D0732B60AB6823F00103AB6048
:1013F800202384F8693084F86A30002384F8683040
:101408000320BDE8F081FFF773FBC01B4045D6D928
:10141800E6E773B504460021C166FFF769FB266855
:1014280033681A07054616D433685B070AD56FF088
:101438007E43009300222B464FF480012046FFF79D
:10144800B7FFA0B92023002084F8693084F8680029
:1014580084F86A300CE06FF07E4300930A46034636
:101468004FF400112046FFF7A3FF0028DCD003202B
:1014780002B070BD38B5044620B390F8693003F067
:10148800FF020BB980F868202568242384F86930A6
:101498002B6823F001032B602046FFF7DBFE0128B1
:1014A80010D06B6823F490436B60AB6823F02A0379
:1014B800AB602B6843F001032B602046BDE8384041
:1014C800FFF7A7BF012038BDF7B51E4690F8693071
:1014D800202B0D46044611464AD1002D46D0002A3D
:1014E80044D090F86830012B42D0012380F868304E
:1014F8000023C366212380F86930FFF7F9FAA4F8BE
:1015080050100746A4F85210B4F8522092B262B9AB
:1015180000963B4640212046FFF74AFF98B9202312
:1015280084F8693084F868000EE0B4F85220013A73
:1015380092B2A4F852203B46009600228021204611
:10154800FFF736FF10B1032003B0F0BDA36822688F
:10155800B3F5805F07D123692BB935F8023BC3F394
:1015680008031385D0E715F8013BFAE70120EBE7FC
:101578000220E9E72DE9F3411E4690F86A30202B56
:101588000D46044611465CD1002D58D0002A56D08D
:1015980090F86830012B54D0012380F86830036834
:1015A8004FF0FF321A620023C366222380F86A30A4
:1015B800FFF79EFAA368A4F85810B3F5805F804639
:1015C800A4F85A1015D123698BB940F2FF13A4F877
:1015D8005C30B4F85C70B4F85A0080B280B920234B
:1015E80084F86A3084F8680002B0BDE8F081FF230F
:1015F800EDE7002BEDD12369002BF8D07F23E6E738
:10160800B4F85A20013A92B2A4F85A2043460096F8
:10161800002220212046FFF7CBFEA0B9A26823684C
:10162800B2F5805F06D1226922B99B8C3B4025F830
:10163800023BD0E79B8C3B4005F8013BCBE7012000
:10164800D2E70220D0E70320CEE701207047000050
:10165800F8B514460E46FFF73BFA0C4F651EC4F169
:10166800010463199E4204DCBDE8F8400A20FFF734
:101678002FBA15F8013F1B09F85CFFF729FA2B78F8
:1016880003F00F03F85CFFF723FAEAE7A31D00084D
:1016980007B5074B0DF107021B688DF807300121CC
:1016A8007220FFF7D5FF002003B05DF804FB00BFF0
:1016B8007806002070B5124C216898B0CDB2002091
:1016C800C3B2AB4200F1010009DB01EB41016A46FC
:1016D800C9B27220FFF7BCFF002018B070BD03EB41
:1016E8004302603204EB03136A441E7902F8606C0B
:1016F8009E681B7C02F85F6C02F85E3CE0E700BF66
:1017080078060020F0B500254F1C854201DB00203B
:1017180021E017F8154011F81530A4F13006F6B29B
:10172800092E0CD81670A3F13004E4B2092C15D890
:10173800137843EA0413137001350132E5E7A4F185
:101748004106052E02D8373C1470ECE7A4F1610677
:10175800052E01D90120F0BD573CF5E7A3F141045E
:10176800052C02D8A3F13704E2E7A3F16104052CA4
:10177800F0D81478573B44EA0313DCE770B5094EF8
:1017880034681F2C0BDC3F2909D806EB0415C5E982
:101798000212013428712B743460002070BD0120BE
:1017A800FCE700BF780600200023FFF7E7BF000032
:1017B80008B5074A00217620FFF7F6FF054A77208B
:1017C800FFF7F2FFBDE80840034A7920FFF7ECBFB6
:1017D80053160008BD160008991600082DE9F041B7
:1017E8002C4DB2B0FFF75AF92A46002352F8041BD1
:1017F80099423FDC3BD005EB03141E01237CDB0739
:1018080013D500238DF80830FFF748F98DF8480004
:10181800FFF744F902AA8DF8490012A90120FFF741
:1018280071FF20BB9DF80830A36012AF002405EBC0
:101838000608D8F80830B4EB430F21D3FFF72EF988
:101848000A2801D00D2812D1354402AAAC6812A981
:101858002046FFF757FF50B9E1B2EB6802A8984756
:1018680001AA8DF8040001217A20FFF7F1FE32B0B9
:10187800BDE8F0811C01A45C8442BCD00133B7E709
:10188800FFF70CF90A28F2D00D28F0D007F8010B61
:101898000134CEE7780600200AB1FFF7D9BE7047B9
:1018A80037B5274A52F8043B03F110011878107035
:1018B8005878507098789070D878D07004338B42EC
:1018C80002F10402F2D11F4B1F4804211A68019249
:1018D8008C0716D1C2F30745C2F30724455D8DF87E
:1018E8000550150ED2B2045D825C8DF8072000EB1E
:1018F8009102455D92F800218DF8065062408DF8FE
:10190800042013F80C2C9DF8044062401A719DF8CD
:10191800054013F80B2C62405A719DF8064013F8E5
:101928000A2C62409A719DF8074013F8092C01317E
:1019380062402C29DA7103F10403C7D103B030BD2A
:101948007C0800208C080020000000200B4AD2F8F8
:10195800B430F0B5000103F11006043214181D1D4F
:10196800197814F8017B794003F8011BAB42F7D1D1
:101978009E4200F10400F1D1F0BD00BF7C080020B8
:10198800094B0A48D3F8B43010B5191D002213F8D2
:101998002240045D03F822400132042AF7D10133C2
:1019A8008B42F3D110BD00BF7C080020000000204E
:1019B8000D4BD3F8B43059795A785970597A59710E
:1019C800597B5972997A5A739A789970997B9A7255
:1019D8009A799971D97B9A73DA78D970D97AD97347
:1019E800D979D972DA7170477C080020C30903EBF2
:1019F800430303EBC30383EA4000C0B2704700000F
:101A08002DE9F84F0020FFF7A1FF224F0124FFF72F
:101A1800B7FFFFF7CDFFD7F8B42002F1100A92F80C
:101A280000905578917892F8038089EA050081EA58
:101A3800080B80EA0B06FFF7D9FF89EA000070401F
:101A4800107085EA0100FFF7D1FF454075405570D9
:101A58005846FFF7CBFF41407140917089EA080072
:101A6800FFF7C4FF88EA000886EA0806D670043241
:101A78009245D4D120460134E4B2FFF767FF0A2C1F
:101A8800C5D1FFF77DFFFFF793FF2046BDE8F84F6C
:101A9800FFF75CBF7C0800204B1E01380F3113F89C
:101AA800012F00F8012F8B42F9D17047014B1860C4
:101AB800FFF7F6BE7C08002008B501460448C0F8C8
:101AC800B410B830FFF7E8FFBDE80840FFF798BF4B
:101AD8007C0800207047FFF7E9BFFFF7EDBF7047AC
:101AE80070470000002103E00B4B5B584350043162
:101AF8000A480B4B42189A42F6D30A4A02E00023DE
:101B080013600432084B9A42F9D3AFF3008000F017
:101B18000FF8FEF717FCFEE7BC1D000800000020C8
:101B28000C0200200C02002044090020FEE70000FF
:101B380070B50D4D0D4C641BA4100026A64209D1AA
:101B48000B4D0C4C00F018F8641BA4100026A6429C
:101B580005D170BD55F8043B98470136EEE755F8B6
:101B6800043B98470136F2E7B41D0008B41D00088D
:101B7800B41D0008B81D0008F8B500BFF8BC08BCC3
:101B88009E467047F8B500BFF8BC08BC9E46704733
:101B9800637C777BF26B6FC53001672BFED7AB7622
:101BA800CA82C97DFA5947F0ADD4A2AF9CA472C0CD
:101BB800B7FD9326363FF7CC34A5E5F171D831153A
:101BC80004C723C31896059A071280E2EB27B2755B
:101BD80009832C1A1B6E5AA0523BD6B329E32F84D3
:101BE80053D100ED20FCB15B6ACBBE394A4C58CFCB
:101BF800D0EFAAFB434D338545F9027F503C9FA89F
:101C080051A3408F929D38F5BCB6DA2110FFF3D26C
:101C1800CD0C13EC5F974417C4A77E3D645D197320
:101C280060814FDC222A908846EEB814DE5E0BDB1A
:101C3800E0323A0A4906245CC2D3AC629195E47951
:101C4800E7C8376D8DD54EA96C56F4EA657AAE08AB
:101C5800BA78252E1CA6B4C6E8DD741F4BBD8B8A46
:101C6800703EB5664803F60E613557B986C11D9EAC
:101C7800E1F8981169D98E949B1E87E9CE5528DF23
:101C88008CA1890DBFE6426841992D0FB054BB164F
:101C98008D01020408102040801B3652096AD53095
:101CA80036A538BF40A39E81F3D7FB7CE339829BDE
:101CB8002FFF87348E4344C4DEE9CB547B9432A68D
:101CC800C2233DEE4C950B42FAC34E082EA166285E
:101CD800D924B2765BA2496D8BD12572F8F6648659
:101CE800689816D4A45CCC5D65B6926C704850FDBB
:101CF800EDB9DA5E154657A78D9D8490D8AB008C58
:101D0800BCD30AF7E45805B8B34506D02C1E8FCAD1
:101D18003F0F02C1AFBD0301138A6B3A9111414FC6
:101D280067DCEA97F2CFCEF0B4E67396AC7422E79C
:101D3800AD3585E2F937E81C75DF6E47F11A711D7C
:101D480029C5896FB7620EAA18BE1BFC563E4BC642
:101D5800D279209ADBC0FE78CD5AF41FDDA83388EB
:101D680007C731B11210592780EC5F60517FA9195C
:101D7800B54A0D2DE57A9F93C99CEFA0E03B4DAE87
:101D88002AF5B0C8EBBB3C83539961172B047EBA84
:101D980077D626E169146355210C7D30313233340E
:0C1DA80035363738394142434445460087
:041DB400AD01000875
:041DB8008901000895
:101DBC00637C777BF26B6FC53001672BFED7AB76FC
:101DCC00CA82C97DFA5947F0ADD4A2AF9CA472C0A7
:101DDC00B7FD9326363FF7CC34A5E5F171D8311514
:101DEC0004C723C31896059A071280E2EB27B27535
:101DFC0009832C1A1B6E5AA0523BD6B329E32F84AD
:101E0C0053D100ED20FCB15B6ACBBE394A4C58CFA4
:101E1C00D0EFAAFB434D338545F9027F503C9FA878
:101E2C0051A3408F929D38F5BCB6DA2110FFF3D246
:101E3C00CD0C13EC5F974417C4A77E3D645D1973FA
:101E4C0060814FDC222A908846EEB814DE5E0BDBF4
:101E5C00E0323A0A4906245CC2D3AC629195E4792B
:101E6C00E7C8376D8DD54EA96C56F4EA657AAE0885
:101E7C00BA78252E1CA6B4C6E8DD741F4BBD8B8A20
:101E8C00703EB5664803F60E613557B986C11D9E86
:101E9C00E1F8981169D98E949B1E87E9CE5528DFFD
:101EAC008CA1890DBFE6426841992D0FB054BB1629
:101EBC008D01020408102040801B3652096AD5306F
:101ECC0036A538BF40A39E81F3D7FB7CE339829BB8
:101EDC002FFF87348E4344C4DEE9CB547B9432A667
:101EEC00C2233DEE4C950B42FAC34E082EA1662838
:101EFC00D924B2765BA2496D8BD12572F8F6648633
:101F0C00689816D4A45CCC5D65B6926C704850FD94
:101F1C00EDB9DA5E154657A78D9D8490D8AB008C31
:101F2C00BCD30AF7E45805B8B34506D02C1E8FCAAB
:101F3C003F0F02C1AFBD0301138A6B3A9111414FA0
:101F4C0067DCEA97F2CFCEF0B4E67396AC7422E776
:101F5C00AD3585E2F937E81C75DF6E47F11A711D56
:101F6C0029C5896FB7620EAA18BE1BFC563E4BC61C
:101F7C00D279209ADBC0FE78CD5AF41FDDA83388C5
:101F8C0007C731B11210592780EC5F60517FA91936
:101F9C00B54A0D2DE57A9F93C99CEFA0E03B4DAE61
:101FAC002AF5B0C8EBBB3C83539961172B047EBA5E
:0C1FBC0077D626E169146355210C7D00E6
:0400000508001AEDE8
:00000001FF
